:1000000088C10000A2C10000A0C100009EC1000084
:100010009CC100009AC1000098C1000096C1000078
:1000200094C1000092C1000090C10000B4C400005F
:100030008CC100008AC1000088C100000C94291105
:1000400084C1000082C1000080C100000C948E0BAE
:100050007CC100007AC1000078C1000076C10000B8
:1000600074C1000072C1000070C100006EC10000C8
:100070006CC10000BC0BD90BD90B560C560C050CEF
:10008000560C560C560C280C560C560C560C560C8E
:10009000560C3B0C3D0C450C3F0C420C3F0C420CEB
:1000A0004A0C470C4A0C470C470C470C4D0C0600F9
:1000B000FF0901A1010902150025FF75089540817E
:1000C000020903150025FF750895409102C0120131
:1000D000100100000008EB034F3000000102000196
:1000E00009022900010100C03209040000010300D7
:1000F00000000921110100012220000705810340B1
:10010000000107050203400001040309042E034314
:10011000006F006C006F007200610064006F0020CF
:10012000004D006900630072006F0020004400650C
:10013000007600690063006500730000003203422E
:10014000004F00520041002000740068006500204C
:1001500000420069006E00610072007900200045D5
:1001600000780070006C006F007200650072000083
:100170000012011001FF000008EB0304210002013E
:10018000020301040309040C03410054004D00451F
:10019000004C000000180341005600520049005373
:1001A00000500020006D006B004900490000001C59
:1001B00003300030003000320030003000300031B9
:1001C0000032003300340035000000000004000459
:1001D00000040005000500060006000600070007F1
:1001E00000070008000900090009000A000A000BC6
:1001F000000C000C000D000E000F000F001000118D
:100200000012001300140015001600170018001942
:10021000001B001C001E001F0021002200240026DD
:100220000028002A002C002E00310033003600394F
:10023000003B003E004100450048004C004F005488
:100240000058005C00610065006A00700075007B6A
:1002500000810088008E0096009D00A500AD00B5CD
:1002600000BE00C800D200DC00E700F200FE000A79
:10027000011801250134014301530164017601880D
:10028000019B01AF01C501DB01F3010B0225024017
:10029000025C027A029902BA02DC02000326034ED3
:1002A000037703A303D1030104320467049F04DA34
:1002B00004150555059705E10528067606C7061FAE
:1002C000077A07D7073308A30809097A09F60970DE
:1002D0000AF70A7C0B0D0CAD0C480DF20D920E4185
:1002E0000F0110D51097119812871378147B158C75
:1002F00016A417D018091A501BA21C0B1E8C1F190C
:1003000021AF226F243726404000410142430004C0
:10031000A00511241FBECFEFD2E0DEBFCDBF11E09C
:10032000A0E0B1E0E4E2FBE202C005900D92AC3542
:10033000B107D9F712E0ACE5B1E001C01D92A633D8
:10034000B107E1F78DD10C9490155ACE459A0895D6
:100350004598089580915C01882331F08091E200F6
:100360008B7F8093E200089580911001909111019C
:10037000009729F00197909311018093100108953F
:100380000F931F93CF93DF93FB01E9019801108234
:100390008091A2018823E1F0813418F080E48093F9
:1003A000A2018091A20180648883A4EAB1E0FE01E9
:1003B0008D918183319681E0A33EB807C9F71092F1
:1003C000A20180E490E0F9019183808381E004C080
:1003D000F8011182108280E0DF91CF911F910F917F
:1003E0000895D9014C91842F8295869586958370C6
:1003F00009F03EC011968C9111978031F1F0843153
:1004000031F1893009F045C08091E000816080932E
:10041000E00088E893E128EC30E0F9013197F1F74A
:100420000197D9F7F8948091E0008E7F8093E000E7
:10043000E0910001F09101010995F90132961296BF
:100440008C918AB982819181892B8BB922C080914C
:10045000E00081608093E0002EE088E190E00FB63C
:10046000F894A895809360000FBE20936000FFCFA2
:10047000813079F4D901E4EEF1E011968C91119775
:100480008193119682E0E332F807B9F74F734093F6
:10049000A301459808958091A301882309F49EC083
:1004A00081508093A3011092A2014091E401642F36
:1004B00070E09B012F7030702330310509F462C069
:1004C000243031055CF42130310509F466C0223056
:1004D00031050CF05CC0232B89F080C0253031053C
:1004E00009F461C02530310594F12630310509F455
:1004F00061C02730310509F071C06AC090E0880FF3
:10050000991F880F991F982F8093A301842F807FB4
:1005100031F042954F704450490F4093A3018091B0
:10052000A0019091A1016091A301892B41F085EE7A
:1005300091E070E044EA51E00E943B134DC085EE2B
:1005400091E070E044EA51E00E94731245C090E0EF
:10055000880F991F880F991F982F8093A301842FCC
:10056000807F31F042954F704450490F4093A30172
:100570006091A30185EE91E070E044EA51E00E94B1
:100580001F142AC00E9419158093A4011FC08091D6
:10059000E50181700E94351517C08091E5018170D9
:1005A0000E942E1511C08091E5011092A001809348
:1005B000A1010AC06091E501862F90E0969587958C
:1005C000617081700E943D151092A40181E004C009
:1005D00084EA91E00E9448158093A2011092A30141
:1005E000089580915C01882319F482E091E0DBC6D4
:1005F000089580915C01882339F08091E2008B7F1F
:100600008093E2000C942A0B82E091E0ABD69091AB
:10061000E20094609093E20080FD02C090E001C08F
:1006200090E288B18F7D982B98B9089584B7877F21
:1006300084BF88E10FB6F894809360001092600048
:100640000FBE0E946C1280E090E020E80FB6F89494
:1006500020936100809361000FBE3D9A45988CC144
:100660001F9388E10FB6F8948093600010926000A9
:100670000FBE1AB880E88BB980E29EE40197F1F7CB
:1006800004B603FC02C04F9905C081E080935C0171
:100690000E94500B10925C0111E010935D01C6DFC7
:1006A0003E9A80E4809380008DE0809381001092D8
:1006B000820082E49FE0909389008093880080917B
:1006C0006F00826080936F00279A82E484BD15BD1D
:1006D00088E687BD4598789482E091E072D55CD534
:1006E000DADEFACF282FDA0180915C01882331F01D
:1006F000822F20E030E0DBD79C013DC09330B1F089
:10070000943028F4913041F0923079F50AC091325A
:1007100011F1923251F524C0EEECF0E022E130E02C
:1007200028C0E0EEF0E029E230E023C0213049F0BB
:10073000213018F02230C9F40AC0E9E0F1E08491D8
:1007400003C0EDE0F1E08491282F30E012C0EDE32A
:10075000F1E08491F9CFE2EFF0E029E030E009C068
:10076000EEEAF0E020E230E004C0E0E0F0E020E07B
:1007700030E0ED93FC93C9010895382F282F2EC047
:10078000822F8F708093E900231721F4762F942F06
:1007900050E006C07091EC009091ED005091F00097
:1007A00091FF1BC08091EB008E7F8093EB008091C6
:1007B000ED008D7F8093ED008091EB008160809350
:1007C000EB007093EC009093ED005093F00080915B
:1007D000EE0087FD02C080E008952F5F253080F293
:1007E0003F703093E90081E008950F931F93CF93FA
:1007F000DF93062FEC0110E02AC09881992329F19C
:100800006B81E981FA812C81892F8F70853018F5F1
:10081000223010F452E001C056E040E028E030E021
:1008200003C04F5F220F331F2E173F07D0F362958F
:10083000660F660F607C991F9927991F692B429557
:10084000407F452B9ADF882331F01F5F25961017D4
:10085000A0F281E001C080E0DF91CF911F910F9164
:1008600008958091290288239CF404C08091280275
:100870008823B9F08091E80082FFF8CF8091E800EA
:100880008B778093E800089580912802882349F0AF
:100890008091E80080FFF8CF8091E8008E77809308
:1008A000E80008954091E4005091E50024E680912D
:1008B000EC0080FF24C08091E80080FD1EC0809184
:1008C0002802882311F482E00895853011F483E032
:1008D00008958091EB0085FF02C081E0089580912A
:1008E000E4009091E5008417950709F3222311F4A1
:1008F00084E008952150AC01DACF80E00895809122
:10090000E80082FFDCCFF9CF40D042D08091D80000
:100910008F778093D8008091D80080688093D8002A
:100920008091D8008F7D8093D80019BC82E089BD6A
:1009300009B400FEFDCF10922802109224021092FA
:1009400026021092250280E060E042E016DF8091EE
:10095000E1008E7F8093E1008091E20081608093CE
:10096000E2008091E20088608093E2008091E000E4
:100970008E7F8093E0000895E3E6F0E080818E7F33
:10098000808381E080932702BFCF1092E200089518
:100990001092E10008951F920F920FB60F9211244A
:1009A0002F933F934F935F936F937F938F939F9377
:1009B000AF93BF93EF93FF938091E10082FF0AC052
:1009C0008091E20082FF06C08091E1008B7F8093DE
:1009D000E100C0DC8091E10080FF17C08091E2005F
:1009E00080FF13C08091E2008E7F8093E2008091AF
:1009F000E20080618093E2008091D8008062809361
:100A0000D80019BC10922802A3DC8091E10084FF79
:100A10002CC08091E20084FF28C019BC82E089BD0F
:100A200009B400FEFDCF8091D8008F7D8093D8005F
:100A30008091E1008F7E8093E1008091E2008F7EC3
:100A40008093E2008091E20081608093E2008091D7
:100A50002402882331F48091E30087FD02C081E005
:100A600001C084E08093280271DC8091E10083FF63
:100A700022C08091E20083FF1EC08091E100877F49
:100A80008093E10082E080932802109224028091FA
:100A9000E1008E7F8093E1008091E2008E7F809361
:100AA000E2008091E20080618093E20080E060E0FB
:100AB00042E063DE70D3FF91EF91BF91AF919F91C0
:100AC0008F917F916F915F914F913F912F910F90F7
:100AD0000FBE0F901F9018959C0140912F025091CE
:100AE00030024617570718F4F90190E03DC0611530
:100AF000710511F0AB01F8CF8091E8008E778093FB
:100B0000E80040E050E0F0CF809128028823F1F126
:100B10008530F1F18091E80083FF02C081E0089503
:100B20008091E80082FD2CC08091E80080FF1CC00D
:100B30008091F200282F30E007C081918093F1006E
:100B4000415050402F5F3F4F4115510519F028305B
:100B5000310598F390E02830310509F491E0809157
:100B6000E8008E778093E8004115510569F69923D6
:100B700059F606C080912802882341F0853041F063
:100B80008091E80082FFF6CF80E0089582E008952A
:100B900083E008959C016115710529F48091E800B6
:100BA0008B778093E800F90120C080912802882388
:100BB00061F1853061F18091E80083FF02C081E03E
:100BC00008958091E80082FFF0CF06C08091F10087
:100BD00081936150704021F08091F2008823B1F739
:100BE0008091E8008B778093E80061157105E9F644
:100BF00006C080912802882341F0853041F0809121
:100C0000E80080FFF6CF80E0089582E0089583E059
:100C100008959C0140912F025091300246175707CA
:100C200018F4F90190E040C06115710511F0AB01B5
:100C3000F8CF8091E8008E778093E80040E050E0A4
:100C4000F0CF80912802882309F440C0853009F450
:100C50003FC08091E80083FF02C081E00895809149
:100C6000E80082FD2DC08091E80080FF1DC08091CA
:100C7000F200282F30E008C084918093F100319673
:100C8000415050402F5F3F4F4115510519F028301A
:100C9000310590F390E02830310509F491E080911E
:100CA000E8008E778093E8004115510551F69923AD
:100CB00041F606C080912802882341F0853041F03A
:100CC0008091E80082FFF6CF80E0089582E00895E9
:100CD00083E00895BF92CF92DF92EF92FF920F933D
:100CE0001F93CF93DF938C01EB016A01DBDDB82EFC
:100CF0008823B9F521970C0F1D1F2196C114D1042B
:100D000039F0F60180819181C81BD90B081B190BA2
:100D1000EE24FF2424C08091E80085FD16C0809158
:100D2000E8008B778093E80037D2C114D10449F0F2
:100D3000F601808191818E0D9F1D9183808385E0D6
:100D400011C0B0DD882359F00DC08091F100F80189
:100D500080830150104021970894E11CF11C2097DA
:100D6000D1F68B2DDF91CF911F910F91FF90EF90D6
:100D7000DF90CF90BF900895BF92CF92DF92EF9215
:100D8000FF920F931F93CF93DF93182F092F7B01AF
:100D90006A0188DDB82E8823B1F5812F902F9C0140
:100DA000E901C114D10439F0F60180819181E81A7A
:100DB000F90AC80FD91F00E010E022C08091E800B6
:100DC00085FD16C08091E8008B778093E800E4D120
:100DD000C114D10449F0F60180819181800F911FE7
:100DE0009183808385E010C05DDD882349F00CC0CD
:100DF0008091F10089930894E108F1080F5F1F4F7B
:100E0000E114F104D9F68B2DDF91CF911F910F9151
:100E1000FF90EF90DF90CF90BF900895BF92CF9258
:100E2000DF92EF92FF920F931F93CF93DF93182FD0
:100E3000092F7B016A0136DDB82E8823B1F5812F99
:100E4000902F9C01E901C114D10439F0F601808191
:100E50009181E81AF90AC80FD91F00E010E022C0FA
:100E60008091E80085FD16C08091E8008E77809320
:100E7000E80092D1C114D10449F0F601808191813A
:100E8000800F911F9183808385E010C00BDD882344
:100E900049F00CC089918093F1000894E108F108B1
:100EA0000F5F1F4FE114F104D9F68B2DDF91CF9125
:100EB0001F910F91FF90EF90DF90CF90BF9008951A
:100EC0000F931F93DF93CF93CDB7DEB7AC970FB6D9
:100ED000F894DEBF0FBECDBFE9E2F2E08091F100F1
:100EE000819322E0E133F207C9F77BDB8091E800D0
:100EF00083FF38C18091290230912A02353009F4EC
:100F000087C0363040F43130C9F1313070F03330C1
:100F100009F028C133C0383009F4F6C0393009F47B
:100F200005C1363009F01EC197C0803821F08238E3
:100F300009F018C108C090912502809126028823EB
:100F400099F0926011C080912D028F708093E9001A
:100F50008091EB0090E025E0969587952A95E1F742
:100F6000982F91701092E9008091E800877F80931C
:100F7000E8009093F1001092F100D1C0882319F09D
:100F8000823009F0EFC090E08F719070009721F0EF
:100F9000029709F0E7C00CC080912B02813009F064
:100FA000E1C010922602333069F5809326022AC0F0
:100FB00080912B02882331F520912D022F7009F4A6
:100FC000D1C02093E9008091EB0080FF1BC033303B
:100FD00021F48091EB00806213C08091EB0080616E
:100FE0008093EB0081E090E002C0880F991F2A9562
:100FF000E2F78093EA001092EA008091EB008860AB
:101000008093EB001092E9008091E800877F8AC00E
:10101000882309F0A7C010912B021F770FB7F8940F
:101020008091E800877F8093E8001BDC8091E800D6
:1010300080FFFCCF8091E3008078812B8093E300D8
:1010400080688093E300112311F482E001C083E003
:10105000809328020FBF86C08058823008F082C07B
:1010600080912B0290912C0223E08C3D920709F095
:1010700033C083E08C838AE28B837FB7F894DE01F0
:1010800015966EE040E050E011E2E62FF0E010939C
:101090005700849140FF03C082958F706F5F8F70FF
:1010A000282F30E08A3018F0C901C79602C0C90164
:1010B000C0968D939D934F5F5F4F4431510529F743
:1010C0007FBF8091E800877F8093E800CE01039680
:1010D0006AE270E001DD12C060912D02AE014F5F47
:1010E0005F4F00DBBC01009709F43CC08091E80031
:1010F000877F8093E80089819A818BDD8091E80069
:101100008B778093E8002EC0803861F58091E800ED
:10111000877F8093E800809124028093F100809182
:10112000E8008E778093E8009CDB1CC08823D1F414
:1011300090912B029230B0F48091E800877F8093E9
:10114000E800909324028DDB80912402882331F4FF
:101150008091E30087FD02C081E001C084E08093BC
:10116000280247DA8091E80083FF0AC08091EB00F3
:1011700080628093EB008091E800877F8093E80095
:10118000AC960FB6F894DEBF0FBECDBFCF91DF9106
:101190001F910F91089508951F938091280288232D
:1011A00071F01091E9008091EC001092E9008091BB
:1011B000E80083FF01C084DE1F701093E9001F91D7
:1011C00008954F925F926F927F928F929F92AF920B
:1011D000BF92CF92DF92EF92FF920F931F93DF9314
:1011E000CF9300D00F92CDB7DEB77C016DB67EB63F
:1011F00080912802843009F09CC02091E400309155
:10120000E500F701828593858217930709F491C061
:1012100081818F708093E9008091E80085FF89C00B
:101220005DB64EB6408550E08DB79EB7841B950BDA
:101230000FB6F8949EBF0FBE8DBF0DB71EB70F5FE0
:101240001F4F19821B821A82C02E912EC80160E0A6
:1012500070E050E00E946F15C701BE016F5F7F4FC5
:1012600040E098018E010E5F1F4F8AD8882EF7014B
:1012700084859585892B19F4AA24BB240BC020E012
:10128000F70186859785892B09F021E081E02827E1
:10129000A22EBB24F701068117810115110511F457
:1012A000DD2414C04A815B818C2D992DB8010E94E8
:1012B0005915DD24009711F0DD24D394F701408502
:1012C000C8016C2D792D50E00E9466158A819B81A2
:1012D000892B01F1882021F4DD2011F4AB28D1F015
:1012E000F701848595859787868781818F708093A4
:1012F000E9008981882311F08093F1006A817B8164
:101300008C2D992D40E050E089DD8091E8008E77AA
:101310008093E8008091E4009091E500F7019387C5
:101320008287252D342DC9010FB6F8949EBF0FBEBC
:101330008DBF0FB6F8947EBE0FBE6DBE0F900F909E
:101340000F90CF91DF911F910F91FF90EF90DF9061
:10135000CF90BF90AF909F908F907F906F905F9055
:101360004F900895CF93DF93DC010996FC0187E04D
:10137000EF0119928A95E9F781E019968C931997F4
:1013800084EF91E01D969C938E931C9783E01496B6
:101390008C931497CD01019661E027DA811181E0E9
:1013A000DF91CF9108956F927F928F929F92AF922B
:1013B000BF92CF92DF92EF92FF920F931F93DF9332
:1013C000CF9300D00F92CDB7DEB76C016DB67EB66D
:1013D0008091E80083FF17C1F601808190E02091A1
:1013E0002D0230912E022817390709F00CC1809187
:1013F0002A02833009F4AFC0843030F4813071F0B8
:10140000823009F000C1E3C08A3009F4C8C08B30D3
:1014100009F4B2C0893009F0F6C059C080912902A0
:10142000813A09F0F0C09DB68EB61B821A82809177
:101430002B0210912C028983F601408550E08DB774
:101440009EB7841B950B0FB6F8949EBF0FBE8DBF41
:10145000EDB6FEB60894E11CF11CBE2CAF2CC70102
:1014600060E070E050E00E946F151150C601BE01AF
:101470006F5F7F4F412F97018E010E5F1F4F0E94BC
:10148000C001F601268137812115310531F04085F3
:10149000C901B70150E00E9466151092E9008091E1
:1014A000E800877F8093E8006A817B818B2D9A2DED
:1014B00013DB8091E8008B778093E800292D382D8D
:1014C000C9010FB6F8949EBF0FBE8DBF9CC080911E
:1014D0002902813209F097C09DB68EB600912F0285
:1014E00010913002A0902B02B0902C028DB79EB7C5
:1014F000801B910B0FB6F8949EBF0FBE8DBFEDB64B
:10150000FEB60894E11CF11C8091E800877F80936F
:10151000E800C701B8013EDB8091E8008E77809338
:10152000E80080E090E0AA2011F081E090E0BA9419
:10153000E80EF91E081B190BC6016A2D4B2D9701E9
:101540000E94F101892D982D9C010FB6F8943EBFA1
:101550000FBE2DBF58C080912902813A09F053C0B7
:101560008091E800877F8093E8008091E80080FF09
:10157000FCCFF60181853FC080912902813209F0BC
:1015800042C08091E800877F8093E8006AD990E0AC
:1015900080912B02811191E0F601918734C08091F6
:1015A0002902813281F58091E800877F8093E800ED
:1015B00058D980912B0290912C02807036E096953C
:1015C00087953A95E1F7F601958784871CC080914D
:1015D0002902813AC1F48091E800877F8093E80076
:1015E0008091E80080FFFCCFF60184859585969573
:1015F0008795969587958093F1008091E8008E7786
:101600008093E8002ED90FB6F8947EBE0FBE6DBE53
:101610000F900F900F90CF91DF911F910F91FF903E
:10162000EF90DF90CF90BF90AF909F908F907F9082
:101630006F90089580912802843059F469D182E036
:101640008093E9008091E80082FF03C0459A7BD037
:10165000459A089582E060E842E38FD880FD02C099
:1016600090E001C090E288B18F7D982B98B90895E1
:1016700084B7877F84BF88E10FB6F89480936000B9
:10168000109260000FBE80E090E020E80FB6F89462
:1016900020936100809361000FBE3D9A45986CC90C
:1016A000E7DF2ED145987894C5DF76DDFDCFDA01EE
:1016B000F9011082923049F0933069F0913031F5A0
:1016C000E1E7F1E022E130E025C09083E2E1F1E0E2
:1016D00020E230E01FC0813059F0813028F08230A4
:1016E00059F0833099F40CC0E3E8F1E084910BC029
:1016F000E7E8F1E0849107C0E5E9F1E0849103C0F7
:10170000EFEAF1E08491282F30E004C0E0E0F0E05F
:1017100020E030E0ED93FC93C901089578941F9286
:101720000F920FB60F9211248F938AB5882321F060
:101730008AB581508ABD01C015BC8F910F900FBE34
:101740000F901F901895FF920F931F931091F10027
:1017500084E68ABD85E085BD812F90E0FC0131974C
:10176000ED31F10508F0A2C0E65CFF4FEE0FFF1F60
:101770000590F491E02D09948091E8008B77809397
:10178000E80082E08093E9008091EC008160809322
:10179000EC0081E08093F1001092F1008AE08093E8
:1017A000F10082E391E06AE070E040E050E036DB77
:1017B00093C00091F100123011F0FF2402C0F090AC
:1017C000F1008091E8008B778093E80082E08093BD
:1017D000E9008091EC0081608093EC001093F100AF
:1017E000802FAFD0123041F481FF0DC01092F10074
:1017F000802F6F2DAED070C080FF05C01092F10019
:10180000802F97D067C080EC65C082E392E064E0EF
:1018100070E040E050E05EDA8091E8008B778093E2
:10182000E80082E08093E9008091EC008160809381
:10183000EC008091320290913302A0913402B09179
:101840003502B7FF03C081E08093310286E00EC00D
:101850008091E8008B778093E80082E08093E90034
:101860008091EC0081608093EC008AE08093F1002D
:101870001092F10031C051D434C01BD432C0812F3A
:10188000E8D22FC0812F38D22CC0E8D12AC0812FB6
:10189000E0D027C0812F98D024C045D122C08091AC
:1018A000E8008B778093E8000E9452048091F20058
:1018B0008034A9F38091E8008B778093E80082E080
:1018C0008093E9008091EC0081608093EC0010939C
:1018D000F10089EC8093F1008091E8008E7780938D
:1018E000E80015BC0E94520482E08093E9008091D8
:1018F000EC008E7F8093EC001F910F91FF90089574
:101900008DE487BD82E084BD80936E0035D0D7C45E
:101910000895982FEDE3F1E08081981741F081E080
:10192000E835F80711F03396F7CFE0E0F0E0CF01AB
:101930000895EFDFFC01009711F480E008958281A3
:101940000895E7DFFC01009711F480E0089581819C
:1019500008950F931F93182F062FDBDFFC010097CC
:1019600041F002831E3929F480E090E0602F0E944C
:101970007E151F910F9108950F931F938EE9C9DF74
:101980008C0180E090E00E947615F80182831F911F
:101990000F910895282F40ED57E003C0CA01019729
:1019A000F1F7222321F08AB521508823B9F7089551
:1019B000982F80915B01882329F09EBD0DB407FE0E
:1019C000FDCF0895892FB9C4DF92EF92FF920F9354
:1019D0001F93DF93CF9300D000D0CDB7DEB7D82EC2
:1019E0008E010F5F1F4FC80164E070E040E050E0DF
:1019F000C3D98091E8008B778093E80082E08093E0
:101A0000E9008091EC0081608093EC0085E0E82E95
:101A1000F12CEC0EFD1EF80181918F01C9DF0E152E
:101A20001F05C9F7D092F1001092F1001092F10059
:101A30008091E8008E778093E8000F900F900F90D0
:101A40000F90CF91DF911F910F91FF90EF90DF905A
:101A50000895BF92CF92DF92EF92FF920F931F9360
:101A6000DF93CF93CDB7DEB729970FB6F894DEBFDB
:101A70000FBECDBFB82ECE01059665E070E040E008
:101A800050E07AD98091E8008B778093E80082E07B
:101A90008093E9008091EC0081608093EC008E01DE
:101AA0000A5F1F4F7E010894E11CF11C9AE0C92EC9
:101AB000D12CCC0EDD1EF801908180915B01882332
:101AC00031F09EBD0DB407FEFDCF8EB502C0892F4B
:101AD00034D4F70181937F010F5F1F4F0C151D0553
:101AE00051F7B092F1001092F1008D81FE01E80FE4
:101AF000F11D80818093F1001092F1008091E80047
:101B00008E778093E80029960FB6F894DEBF0FBE5B
:101B1000CDBFCF91DF911F910F91FF90EF90DF909C
:101B2000CF90BF900895EF92FF920F931F93DF9392
:101B3000CF93CDB7DEB7C250D1400FB6F894DEBF19
:101B40000FBECDBFCE01019663E070E040E050E0F3
:101B500013D934E0E32EF12CEC0EFD1E6981C70190
:101B600070E040E050E008D98091E8008B778093E6
:101B7000E80082E08093E9008091EC00816080932E
:101B8000EC008DE18093F1001092F10000E00BC0B9
:101B90008981081728F4F701E00FF11D808101C049
:101BA00080E006DF0F5F8B81081790F310E024E0E0
:101BB000E22EF12CEC0EFD1E2CC0898190915B0170
:101BC000081778F4F701E00FF11D8081992331F0B7
:101BD0008EBD0DB407FEFDCF8EB501C0AED30F5F35
:101BE0000AC0992331F01EBC0DB407FEFDCF8EB59F
:101BF00002C080E0A2D38093F1008091E80085FDCF
:101C000007C08091E8008E778093E8000E9452041C
:101C10001F5F8A81181788F21092F1009091E800F6
:101C20008091E8008E778093E80095FD09C00E94BE
:101C300052048091E8008E778093E8000E9452045D
:101C4000CE5FDE4F0FB6F894DEBF0FBECDBFCF9193
:101C5000DF911F910F91FF90EF900895EF92FF9207
:101C60000F931F93DF93CF9300D000D000D0CDB758
:101C7000DEB7CE01019666E070E040E050E07CD82F
:101C80008091E8008B778093E80082E08093E90000
:101C90008091EC0081608093EC008E010D5F1F4FFE
:101CA00047E0E42EF12CEC0EFD1EF80181918F012E
:101CB0007FDE0E151F05C9F78A81882321F48981EB
:101CC00069DE90E002C064D3982F82E18093F10036
:101CD0009093F1008091E8008E778093E80026963B
:101CE0000FB6F894DEBF0FBECDBFCF91DF911F912D
:101CF0000F91FF90EF900895DF92EF92FF920F9374
:101D00001F93DF93CF9300D00F92CDB7DEB7F82E9D
:101D1000CE01019663E070E040E050E02DD899815B
:101D20008A8189839A838091E8008B778093E80089
:101D300082E08093E9008091EC0081608093EC0068
:101D4000F092F1001092F10000E010E068E0D62E71
:101D5000EE24E39459C080913102882319F036D3E0
:101D6000109231028B8124DE8091320290913302F5
:101D7000A0913402B0913502892F9A2FAB2FBB2747
:101D800017DE8091320214DE80915B01882331F0EE
:101D90001EBC0DB407FEFDCF8EB502C080E0CDD2D3
:101DA0008093F1008091E80085FD07C08091E800F4
:101DB0008E778093E8000E94520424E1F21619F411
:101DC0008B818D258B8300FD03C086E1F816D1F44D
:101DD0008091320290913302A0913402B091350289
:101DE0000196A11DB11D8093320290933302A093FE
:101DF0003402B093350226E1F21621F0892B11F45A
:101E0000E09231020F5F1F4F89819A8108171907ED
:101E100008F4A1CF1092F1009091E8008091E800C1
:101E20008E778093E80095FD09C00E94520480914E
:101E3000E8008E778093E8000E9452040F900F9084
:101E40000F90CF91DF911F910F91FF90EF90DF9056
:101E500008954F925F926F927F928F929F92AF926E
:101E6000BF92CF92DF92EF92FF920F931F93DF9377
:101E7000CF93CDB7DEB7C950D1400FB6F894DEBFCF
:101E80000FBECDBF182FCE01019669E070E040E093
:101E900050E00E94BC066A81798181E06130780758
:101EA00098F08091E8008B778093E80082E080933F
:101EB000E9008091EC0081608093EC001093F100C8
:101EC00080EC8093F100D8C07A836983CE010A96B2
:101ED00040E050E00E94BC0689819A810A968F7387
:101EE0009070892B39F48091E8008B778093E8001B
:101EF0000E9452048091E8008B778093E80082E092
:101F00008093E9008091EC0081608093EC001331B4
:101F100011F4888401C08984609032027090330289
:101F2000EE24FF24FAE0AF2EB12CAC0EBD1ECC2463
:101F3000DD24E8E04E2E552453946DC0F5019080C9
:101F40000B8180913102882319F040D21092310226
:101F50008D812EDD8091320290913302A091340266
:101F6000B0913502892F9A2FAB2FBB2721DD8091AD
:101F700032021EDD892D1CDD133119F48D8184257B
:101F80008D83E114F10481F4981471F0C0FE05C052
:101F9000133119F48F81886002C08F81877F8F830E
:101FA000E0903202F090330200FD12C0E114F1041F
:101FB00021F403FD02C0097F0260802FB701482D84
:101FC0002C810F810CD2282F882361F5EE24FF2469
:101FD000C0FC02C01531C9F48091320290913302E5
:101FE000A0913402B09135020196A11DB11D8093DC
:101FF000320290933302A0933402B093350213312E
:1020000021F4892B11F4509231020894A11CB11CC7
:102010000894C11CD11C89819A81C816D90608F47C
:102020008DCF20E08B8187FF23C08E81C1DC872D7F
:10203000BFDC862DBDDC80E0BBDC8B8185FF06C06C
:10204000E114F10419F48F7C80618B838B81B701DB
:10205000482D2C810F81C3D1282F133149F4809151
:10206000320290913302892B19F481E0809331027E
:102070001093F1002093F1008091E8008E77809317
:10208000E800C75FDE4F0FB6F894DEBF0FBECDBFCE
:10209000CF91DF911F910F91FF90EF90DF90CF9044
:1020A000BF90AF909F908F907F906F905F904F9078
:1020B00008950F931F93DF93CF9300D0CDB7DEB772
:1020C000CE01019662E070E040E050E00E94BC0664
:1020D00008EE10E0F80180818B77808382E08093A6
:1020E000E900ECEEF0E0808181608083898152DC40
:1020F00080E0BCD1F6D08A814DDCE1EFF0E081E1F7
:1021000080831082F80180818E7780830F900F90FA
:10211000CF91DF911F910F9108958F929F92AF926F
:10212000BF92CF92DF92EF92FF920F931F93DF93B4
:10213000CF93CDB7DEB72F970FB6F894DEBF0FBEA3
:10214000CDBFCE0105966BE070E040E050E00E940C
:10215000BC068091E8008B778093E80082E0809352
:10216000E9008091EC0081608093EC0010923202D3
:102170001092330210923402109235028F810ADCE1
:1021800081D181E073D18E8105DCBCE08B2E912C56
:102190008C0E9D1E5E010894A11CB11CA0E1CA2EEC
:1021A000D12CCC0EDD1E2AC08985F4DBF80190818C
:1021B00080915B01882331F09EBD0DB407FEFDCFF9
:1021C0008EB502C0892FB9D0F70181937F010F5FCF
:1021D0001F4F0C151D0541F78B858823D1F0FE019B
:1021E000E80FF11D90818A85981799F080E03ED123
:1021F0008E81D0DB81E03AD18E81CCDB988599232A
:1022000051F08AB5882339F091509887840175017F
:10221000CBCF90E001C090EC80E18093F1009093EF
:10222000F1008091E8008E778093E8002F960FB63A
:10223000F894DEBF0FBECDBFCF91DF911F910F91FC
:10224000FF90EF90DF90CF90BF90AF909F908F90D6
:1022500008951F920F920FB60F9211248F938091C1
:102260005D01882311F0359A24C0199908C0809126
:102270009E0187FF02C02A9A1BC02A9819C080912C
:102280009E01880F80939E0180919F0181508093D1
:102290009F0180919F01882321F41092810082E0A8
:1022A00086BB1B9B05C080919E01816080939E012F
:1022B000199A8F910F900FBE0F901F901895279A23
:1022C00010926F0010928500109284001092890085
:1022D0001092880084E08093800089E080938100E0
:1022E000089580915B01882349F084B1897F84B986
:1022F00085B1867F85B91CBC1DBC089584B1897FDA
:1023000084B985B1867F85B9DACF92E090936F006A
:102310001092850010928400E82FF0E0EE0FFF1F6E
:10232000E154FE4F859194919093890080938800A9
:102330001092800010928100089580939E0188E0A1
:1023400080939F0180919E0187FF02C02A9A01C05D
:102350002A9810928500109284008AE08093810070
:1023600080919F01882319F08AB58823C9F71092BC
:10237000810080919E010895982F80915B018823B0
:1023800029F09EBD0DB407FEFDCF0895892FD5CF4E
:1023900080EFF2DF80E0F0DF80E0EEDF80915B0134
:1023A000882331F01EBC0DB407FEFDCF8EB502C0F0
:1023B00080E0C3DF80FF03C08AB5882349F78AB570
:1023C000882311F481E8089580E008958DE4D4DF36
:1023D00080E0D2DF80913402CFDF80E0CDCFEF927A
:1023E000FF920F931F937B01142F90E08E7788301C
:1023F000910581F18930910534F48230910559F0CD
:10240000049759F50BC08032910541F08034910555
:1024100009F1409711F5822FBDDA1FC0802FACDF84
:102420008F2DAADF8E2DA8DF80915B01882331F0EC
:102430001EBC0DB407FEFDCF8EB502C080E07DDF6F
:10244000811719F48AB5882349F78AB5882329F4B6
:1024500090E804C09DDF982F01C090E084E68ABD1B
:10246000892F1F910F91FF90EF900895882339F0E5
:10247000569A8EE95EDA882319F45E9A0895569882
:102480005E98089588E955DAE82F8730D8F481E01E
:1024900080935B01F0E0E95FFC4FE491E061209AFA
:1024A000289A84B1866084B923982B9AE6FF03C0EA
:1024B0008DB5816002C08DB58E7F8DBD2098E064A2
:1024C000ECBD089510925B0184B1866084B985B13A
:1024D000896085B98E2F19CF15B887E384B980E359
:1024E00085B9279A08958F929F92AF92BF92CF920B
:1024F000DF92EF92FF920F931F93CF93DF936B01C5
:102500005A014C0130E0C0E0D0E060E070E0A1E0B2
:10251000B0E013E0E12EF12C02E010E0F401408184
:1025200085B1242F2170220F220F8A7F282B842F20
:1025300090E08270907095958795282B25B9299AFF
:102540000000299883B1369582958078382BAC1598
:10255000BD0508F06BC085B1242F269526954470E3
:102560008A7F482B822F90E0827090709595879596
:10257000482B45B9299A0000299883B13695829550
:102580008078382B0C151D0510F0D8014FC085B18F
:10259000422F4695469524708A7F282B842F90E001
:1025A0008270907095958795282B25B9299A0000FF
:1025B000299883B1369582958078382BEC14FD04E8
:1025C00010F0D70133C085B1242F24708A7F282BC7
:1025D00046954695842F90E08270907095958795EA
:1025E000282B25B9299A0000299883B13695829520
:1025F0008078382B2496CE0187709070892B39F41F
:10260000F501E60FF71F30836F5F7F4F30E01496C0
:102610000894811C911C84E090E0E80EF91E0C5F88
:102620001F4FCC15DD0508F479CFDE01AD014770F1
:1026300050704115510589F0A60EB71E232F30E0CA
:1026400088E090E0841B950B02C0359527958A950C
:10265000E2F7F50120836F5F7F4FCB01DF91CF91D0
:102660001F910F91FF90EF90DF90CF90BF90AF90B0
:102670009F908F9008958F929F92AF92BF92CF922A
:10268000DF92EF92FF920F931F93CF93DF936B0133
:102690004A015C0130E0C0E0D0E060E070E0B1E011
:1026A000EB2EF12C43E050E002E010E0D501EC917C
:1026B00085B12E2F2170220F220F8A7F282B8E2F7B
:1026C00090E08270907095958795282B25B9299A6E
:1026D000A091A001B091A101CD010197F1F7299836
:1026E000CD010197F1F783B1369582958078382B2B
:1026F000EC14FD0410F0A70179C085B12E2F2695AA
:102700002695E4708A7FE82B822F90E0827090708B
:1027100095958795E82BE5B9299ACD010197F1F7B1
:102720002998CD010197F1F783B13695829580788C
:10273000382B0C151D0510F0A80158C085B1E22FEB
:10274000E695E69524708A7F282B8E2F90E0827084
:10275000907095958795282B25B9299ACD010197D9
:10276000F1F72998CD010197F1F783B1369582955C
:102770008078382B4C155D05C8F585B12E2F247057
:102780008A7F282BE695E6958E2F90E082709070D8
:1027900095958795282B25B9299ACD010197F1F7B1
:1027A0002998CD010197F1F783B13695829580780C
:1027B000382B6C5F7F4FCB0187709070892B31F481
:1027C000F401EC0FFD1F3083219630E084E090E0AF
:1027D000E80EF91E0894A11CB11C4C5F5F4F0C5F02
:1027E0001F4F6C157D0508F461CFAB01FA01E7704E
:1027F000F070309771F0C80DD91D232F30E088E0BC
:1028000090E08E1B9F0B02C0359527958A95E2F7C5
:1028100028839601295F3F4F03E0369527950A9557
:10282000E1F7C901DF91CF911F910F91FF90EF90D8
:10283000DF90CF90BF90AF909F908F9008958F9230
:102840009F92AF92BF92CF92DF92EF92FF920F933F
:102850001F93CF93DF936B014A015C0130E0C0E02E
:10286000D0E060E070E0B1E0EB2EF12C43E050E00E
:1028700002E010E0D501EC9185B12E2F2170220FDE
:10288000220F8A7F282B8E2F90E082709070959572
:102890008795282B25B9299AA091A001B091A10173
:1028A000CD010197F1F72998CD010197F1F783B197
:1028B000369582958078382B83B13695880F80784D
:1028C000382BEC14FD0410F0A70189C085B12E2F20
:1028D00026952695E4708A7FE82B822F90E08270FF
:1028E000907095958795E82BE5B9299ACD010197C8
:1028F000F1F72998CD010197F1F783B136958295CB
:102900008078382B83B13695880F8078382B0C155A
:102910001D0510F0A80163C085B1E22FE695E6958C
:1029200024708A7F282B8E2F90E08270907095956E
:102930008795282B25B9299ACD010197F1F7299878
:10294000CD010197F1F783B1369582958078382BC8
:1029500083B13695880F8078382B4C155D0508F0CB
:102960003EC085B12E2F24708A7F282BE695E695F0
:102970008E2F90E08270907095958795282B25B9C1
:10298000299ACD010197F1F72998CD010197F1F727
:1029900083B1369582958078382B83B13695880F30
:1029A0008078382B6C5F7F4FCB0183709070892BC0
:1029B00031F4F401EC0FFD1F3083219630E084E008
:1029C00090E0E80EF91E0894A11CB11C4C5F5F4F0B
:1029D0000C5F1F4F6C157D0508F44CCFAB01FA015D
:1029E000E370F070309781F0C80DD91D232F30E0CF
:1029F00084E090E08E1B9F0B880F991F02C03595D5
:102A000027958A95E2F7288396012D5F3F4F3695EB
:102A1000279536952795C901DF91CF911F910F9189
:102A2000FF90EF90DF90CF90BF90AF909F908F90EE
:102A3000089583B1282F229526952695237030E09E
:102A400021703070220F331F86958695869590E011
:102A500081709070282B392BC901089595B182950A
:102A6000807F9F7E982B95B9089595B18295880FA8
:102A7000807E9F7D982B95B9089595B16295660FDC
:102A8000607E8295807F862B9F7C982B95B90895D8
:102A90006EE073E044E050E003D084E090E00895FD
:102AA000FB01DC0102C005900D9241505040D8F767
:102AB0000895FB01DC0104C08D910190801921F47F
:102AC00041505040C8F7881B990B0895FB01DC0169
:102AD00002C001900D9241505040D8F70895DC019A
:102AE00001C06D9341505040E0F70895F999FECF31
:102AF00092BD81BDF89A992780B50895262FF9993E
:102B0000FECF92BD81BDF89A019700B4021639F04C
:102B10001FBA20BD0FB6F894FA9AF99A0FBE08951D
:042B2000F894FFCF57
:102B240000180081400000015E0140000000000028
:102B3400000009022000010100C032090400000263
:102B4400FF0000000705820240000A070502024058
:102B5400000A4156524953505F4D4B3200800100E8
:102B640081010090010091010192011194012198C9
:0C2B740003069E0301A10100A403000160
:00000001FF
